:1000000009C016C015C014C013C012C011C010C062
:100010000FC027C011241FBECFE9CDBF10E0A0E65E
:10002000B0E001C01D92A936B107E1F761D0CCC0A4
:10003000E7CF87B3836087BB8FB583608FBD8FB5F4
:1000400080688FBD8FB580628FBD80E886BF0895C0
:100050003D9A399A86B1856086B986B1886E86B92F
:1000600008951F920F920FB60F9211242F938F9322
:100070009F93AF93BF938091630090916400A09190
:100080006500B091660025B1820F911DA11DB11DC3
:100090008093630090936400A0936500B093660022
:1000A000809167009091680001969093680080931A
:1000B0006700BF91AF919F918F912F910F900FBECD
:1000C0000F901F90189580916200882351F0BB9883
:1000D0001092620019BC81E08093610080936000FF
:1000E0000895BB9A80E889BD81E0809361000895FE
:1000F00078949FDFADDF8091670090916800883E23
:100100009340FCF060916300709164008091650001
:10011000909166002091670030916800442737FD78
:100120004095542F13D08091630090916400A0916A
:100130006500B091660010926800109267008E0111
:10014000E901C017D107BCF6BEDFD5CF052E97FB5E
:1001500016F400940FD057FD05D014D007FC02D040
:1001600046F408C050954095309521953F4F4F4F2C
:100170005F4F089590958095709561957F4F8F4F53
:100180009F4F0895A1E21A2EAA1BBB1BFD010DC0B3
:10019000AA1FBB1FEE1FFF1FA217B307E407F50737
:1001A00020F0A21BB30BE40BF50B661F771F881F13
:1001B000991F1A9469F760957095809590959B01A9
:0C01C000AC01BD01CF010895F894FFCF01
:00000001FF
